:100E300053494D504C450043414C43554C41544F50
:060E400052004E614E005D
:0B0E460002090000020B000001080080
:100DFE007F80120E527F38120E527F01120E527FDA
:090E0E000C120E527F06020E5276
:0A0E52008FA0C2B0120D97C2B222A9
:100DE300AE10AF117C00120D118E0E8F0FEF243059
:010DF300FF00
:0A0DF4008FA0D2B0120D97C2B222F8
:060D9700C2B1D2B27F14CC
:100D9D00E4FDFCEFFBC3ED9BEC94005015E4FBFA76
:100DAD000BBB00010ABA04F8BBFBF50DBD00010C2D
:020DBD0080E1D3
:010DBF002211
:100DC0008B108A118912AB10AA11A912120CE6FF1E
:100DD0006010120DF474012512F512E43511F511AD
:030DE00080E4228A
:100D66007590F0120DFE7F85120E527BFF7A0E797A
:100D760030120DC07FC3120E527BFF7A0E793712E6
:100D86000DC07FC8120E177F01120E521208008086
:010D9600FB61
:10080000C290D293D292D29120943C7F20120E17A4
:100810002094347F37120DF4E5087015AE09AF0A45
:10082000FC7D0A120CFFEF2407F50AE43EF509806F
:10083000DFAE0BAF0C7C007D0A120CFFEF2407F536
:100840000CE43EF50B80C920953C7F20120E17204A
:1008500095347F38120DF4E5087015AE09AF0AFC27
:100860007D0A120CFFEF2408F50AE43EF50980DF4B
:10087000AE0BAF0C7C007D0A120CFFEF2408F50CC8
:10088000E43EF50B80C920963C7F20120E1720967F
:10089000347F39120DF4E5087015AE09AF0AFC7DFE
:1008A0000A120CFFEF2409F50AE43EF50980DFAED9
:1008B0000BAF0C7C007D0A120CFFEF2409F50CE451
:1008C0003EF50B80C92097157F20120E1720970D3B
:1008D0007508017F2F120DF4750D2F80F0C291D293
:1008E00093D292D29020943C7F20120E1720943401
:1008F0007F34120DF4E5087015AE09AF0AFC7D0ACD
:10090000120CFFEF2404F50AE43EF50980DFAE0B7C
:10091000AF0C7C007D0A120CFFEF2404F50CE43EC2
:10092000F50B80C920953C7F20120E172095347F4F
:1009300035120DF4E5087015AE09AF0AFC7D0A12F8
:100940000CFFEF2405F50AE43EF50980DFAE0BAF9E
:100950000C7C007D0A120CFFEF2405F50CE43EF53B
:100960000B80C920963C7F20120E172096347F36CC
:10097000120DF4E5087015AE09AF0AFC7D0A120CE1
:10098000FFEF2406F50AE43EF50980DFAE0BAF0C5D
:100990007C007D0A120CFFEF2406F50CE43EF50BFB
:1009A00080C92097157F20120E1720970D7508011A
:1009B0007F78120DF4750D7880F0C292D293D290A8
:1009C000D29120943C7F20120E172094347F311254
:1009D0000DF4E5087015AE09AF0AFC7D0A120CFF94
:1009E000EF2401F50AE43EF50980DFAE0BAF0C7C85
:1009F000007D0A120CFFEF2401F50CE43EF50B809C
:100A0000C920953C7F20120E172095347F32120D9D
:100A1000F4E5087015AE09AF0AFC7D0A120CFFEF71
:100A20002402F50AE43EF50980DFAE0BAF0C7C0032
:100A30007D0A120CFFEF2402F50CE43EF50B80C991
:100A400020963C7F20120E172096347F33120DF42F
:100A5000E5087015AE09AF0AFC7D0A120CFFEF2401
:100A600003F50AE43EF50980DFAE0BAF0C7C007D98
:100A70000A120CFFEF2403F50CE43EF50B80C920AD
:100A800097157F20120E1720970D7508017F2D12E4
:100A90000DF4750D2D80F0C293D290D292D2912098
:100AA000941A7F20120E172094127F01120E52E426
:100AB000F50BF50CF509F50AF50880EB2095327F6A
:100AC00020120E1720952A7F30120DF4E5087010C1
:100AD000AE09AF0AFC7D0A120CFF8E098F0A80E472
:100AE000AE0BAF0C7C007D0A120CFF8E0B8F0C80BE
:100AF000D32096127F20120E1720960A7F3D120DEA
:100B0000F4120C6480F32097157F20120E172097A3
:0F0B10000D7508017F2B120DF4750D2B80F0224F
:100E1700E4FEEEC39F5011E4FDFC0DBD00010CBCC8
:080E270002F8BDBCF50E80EAE3
:010E2F0022A0
:100C64007FC0120E52E50DB42B0DE50A250CFFE5ED
:100C740009350BFE120B1FE50DB42D29D3E50A959A
:100C84000CE509950B400BE50A950CFFE509950B5E
:100C9400800F7F2D120DF4C3E50C950AFFE50B952B
:100CA40009FE120B1FE50DB42F24E50C450B601053
:100CB400AC0BAD0CAE09AF0A120D11120B1F800E56
:100CC4007F01120E527BFF7A0E7942120DC0E50DA0
:100CD400B4780EAC0BAD0CAE09AF0A120CFF120BBC
:020CE4001F22CD
:100B1F008E108F11D3E511940FE510942740187C98
:100B2F00277D10120DE9AE10AF117C277D10120D2D
:100B3F00118C108D118015D3E51194E7E5109403F6
:100B4F004026E511940FE5109427501CAE10AF11FD
:100B5F007C037DE8120DE9AE10AF117C037DE81226
:100B6F000D118C108D118015D3E5119463E5109440
:100B7F00004020E51194E7E510940350167D6412B0
:100B8F000DE3AE10AF117C007D64120D118C108D32
:100B9F00118015D3E5119409E51094004022E51159
:100BAF009463E510940050187D0A120DE3AE10AF58
:100BBF00117C007D0A120D118C0E8D0FE50F800236
:090BCF00E5112430FF120DF4229F
:03000000020BD818
:0C0BD800787FE4F6D8FD758112020C1F36
:100CE600BB010689828A83E0225002E722BBFE020C
:090CF600E32289828A83E493223F
:100CFF00EF8DF0A4A8F0CF8CF0A428CE8DF0A42E09
:020D0F00FE22C2
:100D1100BC000BBE0029EF8DF084FFADF022E4CCC6
:100D2100F875F008EF2FFFEE33FEEC33FCEE9DEC8F
:100D3100984005FCEE9DFE0FD5F0E9E4CEFD22EDD5
:100D4100F8F5F0EE8420D21CFEADF075F008EF2F1F
:100D5100FFED33FD4007985006D5F0F222C398FD10
:050D61000FD5F0EA22AD
:100BE400020D66E493A3F8E493A34003F68001F2B4
:100BF40008DFF48029E493A3F85407240CC8C33312
:100C0400C4540F4420C8834004F456800146F6DFE0
:100C1400E4800B0102040810204080900E46E47E1C
:100C2400019360BCA3FF543F30E509541FFEE493D5
:100C3400A360010ECF54C025E060A840B8E493A39C
:100C4400FAE493A3F8E493A3C8C582C8CAC583CAC7
:100C5400F0A3C8C582C8CAC583CADFE9DEE780BE7F
:010E510000A0
:00000001FF
